{
  "_format": "hh-sol-artifact-1",
  "contractName": "Faucet",
  "sourceName": "contracts/Faucet.sol",
  "abi": [
    {
      "inputs": [],
      "stateMutability": "payable",
      "type": "constructor"
    },
    {
      "inputs": [
        {
          "internalType": "address",
          "name": "",
          "type": "address"
        }
      ],
      "name": "lastUse",
      "outputs": [
        {
          "internalType": "uint256",
          "name": "",
          "type": "uint256"
        }
      ],
      "stateMutability": "view",
      "type": "function"
    },
    {
      "inputs": [],
      "name": "useFaucet",
      "outputs": [],
      "stateMutability": "nonpayable",
      "type": "function"
    },
    {
      "stateMutability": "payable",
      "type": "receive"
    }
  ],
  "bytecode": "0x608060405261004c6040518060400160405280601981526020017f4465706c6f79696e672066617563657420636f6e74726163740000000000000081525061005160201b6102761760201c565b6101d4565b6100ed816040516024016100659190610152565b6040516020818303038152906040527f41304fac000000000000000000000000000000000000000000000000000000007bffffffffffffffffffffffffffffffffffffffffffffffffffffffff19166020820180517bffffffffffffffffffffffffffffffffffffffffffffffffffffffff83818316178352505050506100f060201b60201c565b50565b60008151905060006a636f6e736f6c652e6c6f679050602083016000808483855afa5050505050565b600061012482610174565b61012e818561017f565b935061013e818560208601610190565b610147816101c3565b840191505092915050565b6000602082019050818103600083015261016c8184610119565b905092915050565b600081519050919050565b600082825260208201905092915050565b60005b838110156101ae578082015181840152602081019050610193565b838111156101bd576000848401525b50505050565b6000601f19601f8301169050919050565b610719806101e36000396000f3fe60806040526004361061002d5760003560e01c80632981499814610039578063663d26071461005057610034565b3661003457005b600080fd5b34801561004557600080fd5b5061004e61008d565b005b34801561005c57600080fd5b506100776004803603810190610072919061034d565b61025e565b60405161008491906104e1565b60405180910390f35b600067016345785d8a00009050478111156100dd576040517f08c379a00000000000000000000000000000000000000000000000000000000081526004016100d4906104c1565b60405180910390fd5b42620151806000803373ffffffffffffffffffffffffffffffffffffffff1673ffffffffffffffffffffffffffffffffffffffff1681526020019081526020016000205461012b9190610523565b1061016b576040517f08c379a0000000000000000000000000000000000000000000000000000000008152600401610162906104a1565b60405180910390fd5b426000803373ffffffffffffffffffffffffffffffffffffffff1673ffffffffffffffffffffffffffffffffffffffff1681526020019081526020016000208190555060003373ffffffffffffffffffffffffffffffffffffffff16826040516101d49061044a565b60006040518083038185875af1925050503d8060008114610211576040519150601f19603f3d011682016040523d82523d6000602084013e610216565b606091505b505090508061025a576040517f08c379a000000000000000000000000000000000000000000000000000000000815260040161025190610481565b60405180910390fd5b5050565b60006020528060005260406000206000915090505481565b61030c8160405160240161028a919061045f565b6040516020818303038152906040527f41304fac000000000000000000000000000000000000000000000000000000007bffffffffffffffffffffffffffffffffffffffffffffffffffffffff19166020820180517bffffffffffffffffffffffffffffffffffffffffffffffffffffffff838183161783525050505061030f565b50565b60008151905060006a636f6e736f6c652e6c6f679050602083016000808483855afa5050505050565b600081359050610347816106cc565b92915050565b60006020828403121561035f57600080fd5b600061036d84828501610338565b91505092915050565b6000610381826104fc565b61038b8185610512565b935061039b8185602086016105b5565b6103a481610617565b840191505092915050565b60006103bc602783610512565b91506103c782610628565b604082019050919050565b60006103df601983610512565b91506103ea82610677565b602082019050919050565b6000610402601f83610512565b915061040d826106a0565b602082019050919050565b6000610425600083610507565b9150610430826106c9565b600082019050919050565b610444816105ab565b82525050565b600061045582610418565b9150819050919050565b600060208201905081810360008301526104798184610376565b905092915050565b6000602082019050818103600083015261049a816103af565b9050919050565b600060208201905081810360008301526104ba816103d2565b9050919050565b600060208201905081810360008301526104da816103f5565b9050919050565b60006020820190506104f6600083018461043b565b92915050565b600081519050919050565b600081905092915050565b600082825260208201905092915050565b600061052e826105ab565b9150610539836105ab565b9250827fffffffffffffffffffffffffffffffffffffffffffffffffffffffffffffffff0382111561056e5761056d6105e8565b5b828201905092915050565b60006105848261058b565b9050919050565b600073ffffffffffffffffffffffffffffffffffffffff82169050919050565b6000819050919050565b60005b838110156105d35780820151818401526020810190506105b8565b838111156105e2576000848401525b50505050565b7f4e487b7100000000000000000000000000000000000000000000000000000000600052601160045260246000fd5b6000601f19601f8301169050919050565b7f4661696c656420746f207769746864726177206d6f6e65792066726f6d20636f60008201527f6e74726163742e00000000000000000000000000000000000000000000000000602082015250565b7f436f6f6c646f776e2074696d65206f6620323420686f75727300000000000000600082015250565b7f4661756365742069732063757272656e746c79206472792c20736f7272792100600082015250565b50565b6106d581610579565b81146106e057600080fd5b5056fea2646970667358221220299d161b47b6702346f2aba434d131b3bf7da737ccaa54a7f18f6bbc598b46fb64736f6c63430008040033",
  "linkReferences": {},
  "deployedLinkReferences": {}
}